:020000040800F2
:10400000FFFF012039C20008ED850008EF85000898
:10401000498700088D870008D1870008000000004C
:10402000000000000000000000000000A16E000879
:104030001588000800000000356F0008E9850008B9
:104040007DC200087DC200087DC200087DC2000854
:104050007DC200087DC200087F8400088F840008AC
:104060009F840008AF840008BD840008D50F0108B4
:104070007DC20008F90F01087DC200087DC200085A
:10408000178800087DC200087DC200087DC20008B4
:104090007DC200087DC200087DC20008D5840008EA
:1040A0007DC200087DC200087DC200087DC20008F4
:1040B0007DC200087DC200087DC20008C90F01084A
:1040C000BD0F01087DC200087DC200087DC2000846
:1040D0007DC200087DC20008351B0108F5190108E2
:1040E0004D8500087DC200087DC200087DC2000821
:1040F0007DC20008111D01087DC200087DC20008B4
:104100007DC200087DC200087DC200087DC2000893
:104110007DC200087DC200087DC20008392D01085B
:10412000C16001087DC200087DC200087DC2000890
:104130007DC200087DC200087DC200087DC2000863
:104140007DC200087DC200087DC200087DCF000846
:10415000556001087DC20008AD180108A9180108C2
:10416000ED0F0108E10F01087DC200087DC20008C3
:104170007DC200087DC200087DC200087DC2000823
:084180007DC200087DC20008A9
:1041880081F0004102E000BF83F0004330B54FEA00
:1041980041044FEA430594EA050F08BF90EA020F6D
:1041A8001FBF54EA000C55EA020C7FEA645C7FEA00
:1041B800655C00F0E2804FEA5454D4EB5555B8BF23
:1041C8006D420CDD2C4480EA020281EA030382EA94
:1041D800000083EA010180EA020281EA0303362D26
:1041E80088BF30BD11F0004F4FEA01314FF4801CF9
:1041F8004CEA113102D0404261EB410113F0004F0B
:104208004FEA03334CEA133302D0524263EB4303C1
:1042180094EA050F00F0A780A4F10104D5F1200E5F
:104228000DDB02FA0EFC22FA05F2801841F10001BA
:1042380003FA0EF2801843FA05F359410EE0A5F18E
:1042480020050EF1200E012A03FA0EFC28BF4CF0BF
:10425800020C43FA05F3C01851EBE37101F0004575
:1042680007D54FF0000EDCF1000C7EEB00006EEB82
:104278000101B1F5801F1BD3B1F5001F0CD349080C
:104288005FEA30004FEA3C0C04F101044FEA445263
:1042980012F5800F80F09A80BCF1004F08BF5FEAEA
:1042A800500C50F1000041EB045141EA050130BDCA
:1042B8005FEA4C0C404141EB010111F4801FA4F16D
:1042C8000104E9D191F0000F04BF01460020B1FAC2
:1042D80081F308BF2033A3F10B03B3F120020CDAFA
:1042E8000C3208DD02F1140CC2F10C0201FA0CF0D8
:1042F80021FA02F10CE002F11402D8BFC2F1200C3D
:1043080001FA02F120FA0CFCDCBF41EA0C019040F2
:10431800E41AA2BF01EB0451294330BD6FEA04043B
:104328001F3C1CDA0C340EDC04F11404C4F1200226
:1043380020FA04F001FA02F340EA030021FA04F338
:1043480045EA030130BDC4F10C04C4F1200220FA8F
:1043580002F001FA04F340EA0300294630BD21FACD
:1043680004F0294630BD94F0000F83F4801306BF93
:1043780081F480110134013D4EE77FEA645C18BF87
:104388007FEA655C29D094EA050F08BF90EA020F1E
:1043980005D054EA000C04BF1946104630BD91EA16
:1043A800030F1EBF0021002030BD5FEA545C05D119
:1043B8004000494128BF41F0004130BD14F5800458
:1043C8003CBF01F5801130BD01F0004545F0FE41CC
:1043D80041F470014FF0000030BD7FEA645C1ABF01
:1043E800194610467FEA655C1CBF0B46024650EA38
:1043F800013406BF52EA033591EA030F41F4002164
:1044080030BD00BF90F0000F04BF0021704730B5E9
:104418004FF4806404F132044FF000054FF00001BE
:1044280050E700BF90F0000F04BF0021704730B57F
:104438004FF4806404F1320410F0004548BF404254
:104448004FF000013EE700BF42004FEAE2014FEAA9
:1044580031014FEA02701FBF12F07F4393F07F4F84
:1044680081F06051704792F0000F14BF93F07F4FB6
:10447800704730B54FF4607401F0004521F00041F9
:1044880020E700BF50EA010208BF704730B54FF07F
:1044980000050AE050EA010208BF704730B511F084
:1044A800004502D5404261EB41014FF4806404F1BC
:1044B80032045FEA915C3FF4DCAE4FF003025FEA3E
:1044C800DC0C18BF03325FEADC0C18BF033202EBC6
:1044D800DC02C2F1200300FA03FC20FA02F001FA20
:1044E80003FE40EA0E0021FA02F11444C1E600BFBF
:1044F80070B54FF0FF0C4CF4E06C1CEA11541DBF72
:104508001CEA135594EA0C0F95EA0C0F00F0DEF83C
:104518002C4481EA030621EA4C5123EA4C5350EA21
:10452800013518BF52EA033541F4801143F4801372
:1045380038D0A0FB02CE4FF00005E1FB02E506F003
:104548000042E0FB03E54FF00006E1FB03569CF058
:10455800000F18BF4EF0010EA4F1FF04B6F5007F5E
:1045680064F5407404D25FEA4E0E6D4146EB0606D0
:1045780042EAC62141EA55514FEAC52040EA5E5059
:104588004FEACE2EB4F1FD0C88BFBCF5E06F1ED803
:10459800BEF1004F08BF5FEA500E50F1000041EB3A
:1045A800045170BD06F0004646EA010140EA0200E7
:1045B80081EA0301B4EB5C04C2BFD4EB0C0541EA09
:1045C800045170BD41F480114FF0000E013C00F31E
:1045D800AB8014F1360FDEBF002001F0004170BD42
:1045E800C4F10004203C35DA0C341BDC04F114045B
:1045F800C4F1200500FA05F320FA04F001FA05F2E7
:1046080040EA020001F0004221F0004110EBD370B3
:1046180021FA04F642EB06015EEA430E08BF20EADF
:10462800D37070BDC4F10C04C4F1200500FA04F382
:1046380020FA05F001FA04F240EA020001F0004114
:1046480010EBD37041F100015EEA430E08BF20EA87
:10465800D37070BDC4F1200500FA05F24EEA020ECF
:1046680020FA04F301FA05F243EA020321FA04F0FE
:1046780001F0004121FA04F220EA020000EBD370B5
:104688005EEA430E08BF20EAD37070BD94F0000FB5
:104698000FD101F00046400041EB010111F4801FE9
:1046A80008BF013CF7D041EA060195F0000F18BF9A
:1046B800704703F00046520043EB030313F4801FD6
:1046C80008BF013DF7D043EA0603704794EA0C0F90
:1046D8000CEA135518BF95EA0C0F0CD050EA4106A6
:1046E80018BF52EA4306D1D181EA030101F0004123
:1046F8004FF0000070BD50EA410606BF104619464B
:1047080052EA430619D094EA0C0F02D150EA013656
:1047180013D195EA0C0F05D152EA03361CBF104697
:1047280019460AD181EA030101F0004141F0FE4136
:1047380041F470014FF0000070BD41F0FE4141F4BA
:10474800780170BD70B54FF0FF0C4CF4E06C1CEABA
:1047580011541DBF1CEA135594EA0C0F95EA0C0F6F
:1047680000F0A7F8A4EB050481EA030E52EA03352A
:104778004FEA013100F088804FEA03334FF080554B
:1047880045EA131343EA12634FEA022245EA111578
:1047980045EA10654FEA00260EF000419D4208BF29
:1047A800964244F1FD0404F5407402D25B084FEAD6
:1047B8003202B61A65EB03055B084FEA32024FF482
:1047C80080104FF4002CB6EB020E75EB030E22BFDF
:1047D800B61A754640EA0C005B084FEA3202B6EB9F
:1047E800020E75EB030E22BFB61A754640EA5C004E
:1047F8005B084FEA3202B6EB020E75EB030E22BFDE
:10480800B61A754640EA9C005B084FEA3202B6EBDE
:10481800020E75EB030E22BFB61A754640EADC009D
:1048280055EA060E18D04FEA051545EA16754FEAFF
:1048380006164FEAC30343EA52734FEAC2025FEA1D
:104848001C1CC0D111F4801F0BD141EA00014FF0AC
:1048580000004FF0004CB6E711F4801F04BF01437D
:104868000020B4F1FD0C88BFBCF5E06F3FF6AFAE99
:10487800B5EB030C04BFB6EB020C5FEA500C50F129
:10488800000041EB045170BD0EF0004E4EEA1131AC
:1048980014EB5C04C2BFD4EB0C0541EA045170BDB3
:1048A80041F480114FF0000E013C90E645EA060EF7
:1048B8008DE60CEA135594EA0C0F08BF95EA0C0F25
:1048C8003FF43BAF94EA0C0F0AD150EA01347FF46D
:1048D80034AF95EA0C0F7FF425AF104619462CE744
:1048E80095EA0C0F06D152EA03353FF4FDAE1046A7
:1048F800194622E750EA410618BF52EA43067FF4F8
:10490800C5AE50EA41047FF40DAF52EA43057FF487
:10491800EBAE12E74FF0FF3C06E000BF4FF0010C92
:1049280002E000BF4FF0010C4DF804CD4FEA410CF6
:104938007FEA6C5C4FEA430C18BF7FEA6C5C1BD0C3
:1049480001B050EA410C0CBF52EA430C91EA030F44
:1049580002BF90EA020F0020704710F1000F91EAA1
:10496800030F58BF994208BF90422CBFD8176FEA6F
:10497800E37040F0010070474FEA410C7FEA6C5C3D
:1049880002D150EA013C07D14FEA430C7FEA6C5C44
:10499800D6D152EA033CD3D05DF8040B704700BF70
:1049A8008446104662468C461946634600E000BFBE
:1049B80001B5FFF7B7FF002848BF10F1000F01BD90
:1049C8004DF808EDFFF7F4FF0CBF012000205DF85B
:1049D80008FB00BF4DF808EDFFF7EAFF34BF0120E0
:1049E80000205DF808FB00BF4DF808EDFFF7E0FF79
:1049F80094BF012000205DF808FB00BF4DF808EDCA
:104A0800FFF7CEFF94BF012000205DF808FB00BF30
:104A18004DF808EDFFF7C4FF34BF012000205DF812
:104A280008FB00BF4FEA410C7FEA6C5C02D150EAF8
:104A3800013C0AD14FEA430C7FEA6C5C02D152EA8E
:104A4800033C02D14FF0000070474FF0010070475F
:104A58004FEA4102B2F1E04324BFB3F5001CDCF198
:104A6800FE5C0DD901F0004C4FEAC0024CEA5070D0
:104A7800B2F1004F40EB830008BF20F001007047FF
:104A880011F0804F21D113F13872BCBF01F0004002
:104A9800704741F480114FEA5252C2F11802C2F134
:104AA800200C10FA0CF320FA02F018BF40F00100B5
:104AB8004FEAC1234FEAD32303FA0CFC40EA0C0067
:104AC80023FA02F34FEA4303CCE77FEA625307D1A4
:104AD80050EA01331EBF4FF0FE4040F440007047DB
:104AE80001F0004040F0FE4040F40000704700BF75
:104AF80080F0004002E000BF81F0004142001FBF8B
:104B08005FEA410392EA030F7FEA226C7FEA236C93
:104B18006AD04FEA1262D2EB1363C1BFD218414088
:104B280048404140B8BF5B42192B88BF704710F01E
:104B3800004F40F4000020F07F4018BF404211F0C1
:104B4800004F41F4000121F07F4118BF494292EA29
:104B5800030F3FD0A2F1010241FA03FC10EB0C0055
:104B6800C3F1200301FA03F100F0004302D54942E2
:104B780060EB4000B0F5000F13D3B0F1807F06D38F
:104B880040084FEA310102F10102FE2A51D2B1F187
:104B9800004F40EBC25008BF20F0010040EA03007C
:104BA8007047490040EB000010F4000FA2F1010229
:104BB800EDD1B0FA80FCACF1080CB2EB0C0200FAB3
:104BC8000CF0AABF00EBC25052421843BCBFD04001
:104BD8001843704792F0000F81F4000106BF80F47B
:104BE80000000132013BB5E74FEA41037FEA226C3E
:104BF80018BF7FEA236C21D092EA030F04D092F009
:104C0800000F08BF0846704790EA010F1CBF00203C
:104C1800704712F07F4F04D1400028BF40F0004099
:104C2800704712F100723CBF00F50000704700F0B9
:104C3800004343F0FE4040F4000070477FEA2262E0
:104C480016BF08467FEA23630146420206BF5FEAB1
:104C5800412390EA010F40F4800070474FF00003B1
:104C680004E000BF10F0004348BF40425FEA000C78
:104C780008BF704743F0964301464FF000001CE020
:104C880050EA010208BF70474FF000030AE000BF76
:104C980050EA010208BF704711F0004302D54042B4
:104CA80061EB41015FEA010C02BF84460146002026
:104CB80043F0B64308BFA3F18053A3F50003BCFA41
:104CC8008CF2083AA3EBC25310DB01FA02FC6344EE
:104CD80000FA02FCC2F12002BCF1004F20FA02F2F5
:104CE80043EB020008BF20F00100704702F12002E8
:104CF80001FA02FCC2F1200250EA4C0021FA02F249
:104D080043EB020008BF20EADC7070477BB972B938
:104D18000029BEBF00204FF0004106E008BF002870
:104D28001CBF6FF000414FF0FF3000F0B1B9ADF19A
:104D3800080C6DE904CE002909DB002B1ADB00F012
:104D480035F8DDF804E0DDE9022304B0704740429D
:104D580061EB4101002B1BDB00F028F8DDF804E0D3
:104D6800DDE9022304B0404261EB4101524263EBAA
:104D780043037047524263EB430300F017F8DDF832
:104D880004E0DDE9022304B0404261EB41017047D1
:104D9800524263EB430300F009F8DDF804E0DDE973
:104DA800022304B0524263EB430370472DE9F047F6
:104DB8008C460E460446089D002B50D18A42174661
:104DC8006CD9B2FA82FEBEF1000F0BD0CEF12004EE
:104DD80020FA04F401FA0EF644EA060C02FA0EF779
:104DE80000FA0EF44FEA1749220CBCFBF9F01FFA3F
:104DF80087F809FB10C642EA064600FB08F3B342EF
:104E080009D9F61900F1FF3280F02281B34240F24D
:104E18001F8102383E44F61AA2B2B6FBF9F309FB29
:104E2800136642EA064403FB08F8A04509D9E419C9
:104E380003F1FF3280F00A81A04540F20781023B6E
:104E48003C44C8EB040443EA00400021002D62D032
:104E580024FA0EF400232C606B60BDE8F0878B42C7
:104E680007D9002D55D0002185E841000846BDE846
:104E7800F087B3FA83F1002940F09080B34202D35F
:104E8800824200F2F880841A66EB03060120B446D9
:104E9800002D40D085E81010BDE8F08712B9012731
:104EA800B7FBF2F7B7FA87FEBEF1000F35D1F31B57
:104EB8004FEA17481FFA87FC0121B3FBF8F0220CD0
:104EC80008FB103642EA06460CFB00F3B34207D94A
:104ED800F61900F1FF3202D2B34200F2CE8010463A
:104EE800F61AA2B2B6FBF8F308FB136642EA0644C8
:104EF8000CFB03FCA44507D9E41903F1FF3202D2E5
:104F0800A44500F2B5801346CCEB040443EA004004
:104F18009CE729462846BDE8F087CEF1200106FA2D
:104F28000EF307FA0EF720FA01F94FEA1748CE40B8
:104F380049EA0309B6FBF8FA4FEA194408FB1A666E
:104F48001FFA87FC44EA06430AFB0CF29A4200FA6D
:104F58000EF40AD9DB190AF1FF3180F087809A42F2
:104F680040F28480AAF1020A3B449B1A1FFA89F98D
:104F7800B3FBF8F108FB113349EA034301FB0CF6D4
:104F88009E4207D9DB1901F1FF326BD29E4269D9E3
:104F980002393B449B1B41EA0A418EE7C1F1200ECE
:104FA80022FA0EF48B40234320FA0EF706FA01F496
:104FB8004FEA134C26FA0EF63C43B6FBFCF9270CD5
:104FC8000CFB19661FFA83F847EA064609FB08F73F
:104FD800B74202FA01F200FA01FA08D9F61809F103
:104FE800FF3041D2B7423FD9A9F102091E44F61B4E
:104FF800A0B2B6FBFCF40CFB146640EA064704FBBF
:1050080008F8B84507D9FF1804F1FF3028D2B84589
:1050180026D9023C1F4444EA0940C8EB0707A0FB15
:1050280002894F4544464E4614D329D065B3BAEB9E
:10503800040367EB060707FA0EFECB40CF404EEAA3
:10504800030385E888000021BDE8F0871346F8E6E9
:105058001046E0E6B8EB020469EB03060138E5E721
:105068000446D8E7114695E78146C0E78A467CE7BB
:10507800023B3C4448E708460AE702383E442FE72B
:10508800C245E7D33E46D1E72946BDE8F08700BFD1
:10509800704700BF10F8012B11F8013B012A28BF07
:1050A8009A42F7D0D01A7047034613F8012B002A0A
:1050B800FBD1181A0138704700F1080343604FF01C
:1050C800FF32C360036100238260036070470023DE
:1050D8000361704743684B609A688A609A685160B8
:1050E8009960086103680133036070470A68531CBC
:1050F80030B501D1036907E000F108035C68256851
:10510800AA4201D32346F9E75A684A6091608B6046
:105118005960086103680133036030BD42688168E3
:10512800036991608268416851605A68904204BF7F
:1051380082685A6000220261186801381860704756
:10514800064A13681968064B11B94FF0FF3203E09D
:105158001268D268D26852681A607047E00A002064
:10516800840B002010B5044628B940F2665209495C
:10517800094806F04BFE6269084B9A4207D1A06ABB
:10518800074B984203D0B0FA80F0400910BD0020C8
:1051980010BD00BF1CD2010835D20108C80B002081
:1051A800940B002010B50E4B1A6850600D4A126817
:1051B8009042044607D20C4A10681968BDE81040AE
:1051C8000431FFF793BF094A106819680431FFF7E3
:1051D8008DFF074B1A68944238BF1C6010BD00BF92
:1051E800800B00208C0B0020900B0020E00A002090
:1051F800840B00202DE9F0430C68002C46D04B6846
:105208005C684C6001F10807BC4204BF7B684B60D6
:105218004B684FF00208D3F80CC000F11C030020C3
:105228004C6864684C60A74204BFCC684C604C680A
:10523800E46843F81C4C04F1340543F8185C256C09
:1052480043F8145C03F8102CE56A43F80C5C032A55
:1052580003D1A56A0DB103F8108CA56C43F8085C5E
:10526800656D43F8045CD4F830E07646CEEB06056D
:1052780016F8019BB9F1A50FF8D0AD08A44523F89D
:10528800205B00F10100CBD1BDE8F0832046BDE8EA
:10529800F08300002DE9F84F0A9E0C9C0F46154636
:1052A8009A46814628B940F22D226749674806F098
:1052B800ADFD052E05D940F22E226349644806F05B
:1052C800A5FD3CB9A80001F0BDFC8346002800F00C
:1052D800B68000E0A346602001F0B4FC044688B123
:1052E800AD002A46C0F830B0A521584617F095FE03
:1052F800236B043D1D4425F007057B1E04F1330292
:10530800093705E0584601F03BFD98E09F4206D07A
:1053180013F8011F02F8011F19780029F6D1052E8C
:105328004FF0000BB04604F1040728BF4FF0050802
:10533800384684F83DB0C4F82C80C4F84880C4F8D6
:105348004CB0FFF7C4FE04F11800FFF7C0FEC8F127
:105358000603A361C4F858B024616462C4F850B06D
:10536800C4F854B084F85CB052464946284601F067
:1053780081FD0B9B206003B11C6001F09DFD354A47
:10538800354D1368DFF8F890013313602B683BBB89
:105398002C601268012A2BD1984609EB080008F105
:1053A8001408FFF789FEB8F1780FF6D1DFF8D4A01A
:1053B800DFF8D4805046FFF77FFE4046FFF77CFEBB
:1053C8002648FFF779FE2648FFF776FE2548FFF7BF
:1053D80073FE254BC3F800A0244BC3F8008007E0F8
:1053E800234B1B6823B92B68DB6A9E4228BF2C60BD
:1053F800204A2149136801331360E26A23640B6869
:10540800012404FA02F0034314200B6000FB02900D
:105418003946FFF75FFE01F071FD154B1B685BB164
:105428002B68DB6A9E4207D9144B4FF080521A60F2
:10543800BFF34F8FBFF36F8F2046BDE8F88F4FF053
:10544800FF30BDE8F88F00BF1CD201083BD201082D
:1054580046D20108AC0B0020800B0020940B0020E2
:10546800CC0A0020C80B0020E00A0020900B002086
:10547800E40A0020A80B0020DC0B002004ED00E06B
:10548800040B0020EC0A0020B00B002038B50446BD
:1054980001F012FD0CB9254B1C68251D2846FFF7A5
:1054A8003DFE60B9E06A224B142242439B5833B94F
:1054B800204901230A68834022EA03030B60A36A98
:1054C8001BB104F11800FFF729FE29461A48FFF717
:1054D80001FE1A4A136801331360194A136801332D
:1054E800136001F00BFD174B1B68EBB10F4B1B68EA
:1054F8009C4211D1144B1B682BB140F21E32134948
:10550800134806F083FC134B4FF080521A60BFF328
:105518004F8FBFF36F8F38BD01F0CEFCFFF710FE41
:10552800BDE8384001F0EABC38BD00BF800B002060
:10553800040B0020DC0B0020CC0A0020E80A002025
:10554800A80B0020E40A0020880B00201CD20108C8
:10555800A9D2010804ED00E0F8B5044638B94FF4C3
:10556800B2621A491A48BDE8F84006F04FBC194E15
:105578003368984229D001F09FFC2046FFF7F2FDDE
:10558800012805461DD1271D3846FFF7C7FD1249DA
:10559800E26A0B6895401D43104B0D60142000FB18
:1055A80002303946FFF796FD3368E26ADB6A9A42B1
:1055B80007D30B4B4FF080521A60BFF34F8FBFF3E6
:1055C8006F8FBDE8F84001F099BCF8BD1CD2010806
:1055D800ECD20108800B0020DC0B0020040B00201B
:1055E80004ED00E01FB50024194B019303940294C5
:1055F80000942346962217491748FFF74BFE0128C7
:105608001AD101F049F9012816D14FF05F0383F34D
:105618001188BFF36F8FBFF34F8F104B4FF0FF32DE
:105628001A600F4B18600F4B1C600DF01DFB04B087
:10563800BDE8104001F0CEBC40B90B490B4840F220
:10564800516204B0BDE8104006F0E0BB04B010BDE4
:10565800C40B0020FAD20108095A0008840B002064
:10566800E40A00208C0B00201CD20108FFD201089C
:10567800024A136801331360704700BF880B00208B
:10568800014B1868704700BF8C0B00202DE9F74FBD
:10569800404B414A19681160404A1268002A3ED1BD
:1056A8001A6801321A601D68A5B93D4C23681B6849
:1056B8002BB140F2AA723B493B4806F0A7FB3B4B93
:1056C8002268196821601A60394A13680133136027
:1056D800FFF736FD374C01942368374E374F9D420C
:1056E8004FF0000B11D3DFF8B880DFF8DC90D8F862
:1056F80000201268002A3DD0D8F80020D268D4686B
:1057080061688D4212D2019B19603A68D16A1422ED
:105718004A43B258022A28BF4FF0010B2FE0284A0B
:105728001368013313604FF0000B28E004F1040AFA
:105738005046FFF7F3FCA16A19B104F11800FFF70E
:10574800EDFCE06AD9F80010012303FA00FE4EEAE6
:1057580001014FF0140EC9F800100EFB006051460D
:10576800FFF7B8FC3868E16AC26A914228BF4FF077
:10577800010BBCE7019B4FF0FF321A60C5E7114AE5
:105788001268002A18BF4FF0010B584603B0BDE855
:10579800F08F00BF8C0B0020080000E0880B002071
:1057A800E00A00201CD2010823D30108900B002036
:1057B8007C0B0020840B0020040B0020800B0020B1
:1057C800000B0020E00B0020DC0B00202DE9F84343
:1057D8002F4C23682BB940F28E622E492E4806F0D2
:1057E80015FB01F069FB2368013B236023680BB1BB
:1057F800002447E0294B1B68002BF9D0284D294E7F
:10580800DFF8B4802B6803B3EB68DC6804F10409A3
:1058180004F11800FFF782FC4846FFF77FFCE26AB4
:105828003368012707FA02F114200B4300FB0280BA
:1058380049463360FFF74EFC1B4BE26A1B68DB6A84
:105848009A42DFD3194B1F60DAE7194C236863B912
:10585800164B1C68012CCBD1164B4FF080521A60A6
:10586800BFF34F8FBFF36F8F0CE0104D01262368F5
:10587800002BEDD0FFF70AFF00B12E602368013B33
:105888002360F4E701F03AFB2046BDE8F88300BF47
:10589800880B00201CD201084ED30108AC0B002055
:1058A800940B0020DC0B0020800B0020E00B002074
:1058B800000B002004ED00E0040B002038B50C4676
:1058C800054628B940F23F322449254806F09EFA99
:1058D8002CB94FF450722149224806F097FA224B0E
:1058E8001B682BB140F241321C49204806F08EFA61
:1058F800FFF7BEFE1E4B2A681B689342144402D26F
:10590800A24207D901E0A24206D8A3422CBF002335
:10591800012302E0002300E001232C608BB1154D28
:1059280028680430FFF7FAFB40B92B681249D86A97
:105938000A680123834022EA03030B602046FFF72D
:1059480031FCFFF743FF38B90C4B4FF080521A6017
:10595800BFF34F8FBFF36F8F38BD00BF1CD2010854
:1059680063D3010876D30108880B0020A9D2010867
:105978008C0B0020800B0020DC0B002004ED00E0E5
:1059880038B5044640B9174B4FF080521A60BFF340
:105998004F8FBFF36F8F38BD134B1B682BB140F28D
:1059A800A3321249124806F031FAFFF761FE114D91
:1059B800114B1B68286804301C44FFF7AFFB40B943
:1059C8002B680E49D86A0A680123834022EA030338
:1059D8000B602046FFF7E6FBFFF7F8FE0028D2D061
:1059E80038BD00BF04ED00E0880B00201CD2010880
:1059F800A9D20108800B00208C0B0020DC0B0020B2
:105A080080B5134D2E46134F2B68F3B1FFF730FEC8
:105A18003C68FFF7DBFE002CF6D001F04DFA0D4B89
:105A2800DB68DC68201DFFF779FB0B4A1368013B34
:105A380013603368013B336001F060FA206B01F0BA
:105A48009FF9204601F09CF9DEE703F083FCDAE7D2
:105A5800E80A0020CC0A0020AC0B00202DE9F04118
:105A680005461746FFF704FE1E4B1B688B4233D8CA
:105A78000026DFF88480344606F1640105EB441003
:105A880001224144FFF7B6FB143E16F1780F044497
:105A9800F2D1154B0222196805EB4410FFF7AAFB57
:105AA800124B04441968022205EB4410FFF7A2FBCD
:105AB800044404220E4905EB4410FFF79BFB044401
:105AC80005EB441003220B49FFF794FB044427B16C
:105AD8000DF00EF9386000E00024FFF777FE20464D
:105AE800BDE8F081AC0B0020E00A0020900B0020FC
:105AF800CC0A0020C80B0020040B002038B50D4646
:105B0800044608B9044B1C6801F0D6F92565BDE8C0
:105B1800384001F0F3B900BF800B002070B51E4B70
:105B28001A681E4B0AB1012234E01A600DF0E0F841
:105B38001B4A1C4E1468A04204D931684B6D1B1BCC
:105B480003444B65184B10601C68B4FA84F4E4B243
:105B5800C4F11F041423154D6343EB582BB940F6C9
:105B6800C8021349134806F051F9142202FB04F342
:105B7800E91808334868406848602B44984204BFD5
:105B880043684B6002FB04546368DB683360336826
:105B98005A6B094B1A6070BD880B0020E00B00207F
:105BA800C80A0020800B0020DC0B0020040B00201A
:105BB8001CD201088ED30108040000E0F8B50446A1
:105BC800284D01F079F904B92C68261D3046FFF7F5
:105BD800A5FA60B9E06A244B142242439B5833B9B2
:105BE800224901230A68834022EA03030B60A36A5F
:105BF8001BB104F11800FFF791FA1D4F31463846E2
:105C0800FFF768FA01F07AF92B689C42194B1B6878
:105C18001ED18BB1184B1B682BB140F22E5217497D
:105C2800174806F0F3F8174B4FF080521A60BFF38D
:105C38004F8FBFF36F8FF8BD134A396812689142CE
:105C480002D1084A1360F8BDBDE8F840FFF766BF07
:105C58003BB101F031F9FFF773FABDE8F84001F004
:105C68004DB9F8BD800B0020040B0020DC0B002090
:105C7800C80B0020E40A0020880B00201CD2010871
:105C8800A9D2010804ED00E0AC0B002070B50D4668
:105C9800064628B940F6DA021349144806F0B6F861
:105CA800134C216830461831FFF720FA2068043079
:105CB800FFF734FA40B923680E49D86A0A68012305
:105CC800834022EA03030B606B1C06D121680A4853
:105CD8000431BDE87040FFF7FDB9084B1868284447
:105CE800BDE87040FFF75EBA1CD20108D5D30108A1
:105CF800800B0020DC0B0020C80B00208C0B002040
:105D0800F8B50D461646074628B940F65912144903
:105D1800144806F07BF8144C216838461831FFF710
:105D2800D9F920680430FFF7F9F940B923680F4919
:105D3800D86A0A680123834022EA03030B60012E14
:105D480006D121680A480431BDE8F840FFF7C2B916
:105D5800084B18682844BDE8F840FFF723BA00BF8D
:105D68001CD20108D5D30108800B0020DC0B0020D1
:105D7800C80B00208C0B002070B5C368DC682CB9F8
:105D880040F6B4121549164806F040F804F1180513
:105D98002846FFF7C3F9134B1B6883B9261D304605
:105DA800FFF7BCF91049E56A0A680123AB401343C1
:105DB8000B600E4B1420314600FB053001E00C4807
:105DC8002946FFF787F90B4BE26A1B68DB6A9A42A0
:105DD80083BF094B01201860002070BD1CD2010848
:105DE800FBD30108880B0020DC0B0020040B0020EB
:105DF800940B0020800B0020E00B002010B5044617
:105E080028B940F614220549054805F0FFFF054B5F
:105E18001B682360044B1B68636010BD1CD201081B
:105E28002AD401087C0B00208C0B002038B50D46C5
:105E3800044628B940F61E221449154805F0E6FF25
:105E48002DB940F61F221149124805F0DFFF01F075
:105E580033F8114B19682B685A1C10D00F4A206868
:105E680012689042626801D091420AD2881A83422D
:105E780007D9521A13442B602046FFF7BFFF0024AE
:105E880000E0012401F03AF8204638BD1CD2010890
:105E98002AD4010834D401088C0B00207C0B002084
:105EA800014B01221A607047E00B0020054B1B686C
:105EB80033B1054B1B68002B0CBF02200020704734
:105EC80001207047E40A0020880B00202DE9F041EA
:105ED8000446002838D01D4DC36A2A68D26A934206
:105EE80032D282691A4E002AA1BF2A68D26AC2F148
:105EF800060282611427426907FB03639A4220D194
:105F080000F104084046FFF709F9124B48B9E06A66
:105F18004743F2592AB919680122824021EA02024C
:105F28001A602A68D26AE26201201C689040204305
:105F380018601420414600FB0260BDE8F041FFF7FD
:105F4800C9B82B68DB6AC362BDE8F081800B00200A
:105F5800040B0020DC0B0020F8B5044608B900202B
:105F6800F8BD204B1B68984205D040F6A7521E4941
:105F78001E4805F04BFFE36C2BB940F6A9521A49AD
:105F88001B4805F043FFE36CE16AA26C013B9142B8
:105F9800E364E4D0002BE2D1251D2846FFF7BEF8C4
:105FA800144E154A50B9E76A1421794373582BB92E
:105FB80010680123BB4020EA03031360A36C106838
:105FC800E362C3F10601A161012404FA03F1084365
:105FD8001060142000FB03602946FFF77BF8204679
:105FE800F8BD00BF800B00201CD2010842D4010874
:105FF80058D40108040B0020DC0B0020044B1A685D
:106008001AB11968CA6C0132CA641868704700BFAF
:10601800800B002038B51546026C044632B9056875
:1060280045BB4068FFF798FF656024E06DB980685C
:1060380016F0E8FFA268236C13446268A3609342D9
:1060480018D32368A360284615E0C06816F0DAFF65
:10605800236CE26821685B421A448A42E2603EBFD0
:1060680062689B18E360022D04D1A36B13B1A36B84
:10607800013BA3630020A36B0133A36338BD034630
:1060880010B41A6C084662B1D9685C681144A14220
:10609800D96024BF1968D960D9685DF8044B16F037
:1060A800B1BF5DF8044B704738B5044600F004FFF3
:1060B80004F12405A36C002B0BDD636A4BB1284661
:1060C800FFF75AFE08B1FFF7EBFEA36C013BA36490
:1060D800F0E74FF0FF33A36400F010FF00F0ECFE90
:1060E80004F11005636C002B0BDD23694BB12846C6
:1060F800FFF742FE08B1FFF7D3FE636C013B636410
:10610800F0E74FF0FF336364BDE8384000F0F6BEB7
:1061180038B50D46044628B94FF4847219491A480F
:1061280005F074FE00F0C8FE216CE36B2268A260E3
:106138004B43D0185B1A13446060E36000204FF0B3
:10614800FF33A0636364A36485B92369B3B104F121
:106158001000FFF711FE012810D10C4B4FF08052B0
:106168001A60BFF34F8FBFF36F8F07E004F1100081
:10617800FEF7A2FF04F12400FEF79EFF00F0BEFE2A
:10618800012038BDB9D40108D2D4010804ED00E0DB
:10619800F8B50D461746064628B940F2431213498A
:1061A800134805F033FE1DB105FB06F0013000E091
:1061B8002846543000F046FD044670B10DB9206001
:1061C80002E000F154030360E663256401212046E0
:1061D800FFF79EFF84F8507005E040F27F120349F4
:1061E800044805F013FE2046F8BD00BFB9D40108E5
:1061F800DAD40108FFD201082DE9FF470F460192C2
:106208001E46044628B940F267225D495D4805F0FC
:10621800FDFD1FB9236C002B40F09A80022E03D19C
:10622800E36B012B40F09B80FFF740FE18B9019B00
:10623800002B40F09B80DFF85081DFF850914FF041
:10624800000A00F039FEA26BE36B9A4201D3022EDA
:106258001FD1E36C4C4A43F48073136039463246CD
:106268002046FFF7D7FE636A33B104F12400FFF735
:1062780083FD012809D100E038B1444B4FF080522A
:106288001A60BFF34F8FBFF36F8F00F037FE012006
:1062980073E0019D45B900F031FEE36C3A4A43F4DE
:1062A80000731360284668E0BAF1000F02D102A813
:1062B800FFF7A4FD00F022FEFFF7DAF900F0FCFD7D
:1062C800636C013304BF00236364A36C013304BF10
:1062D8000023A36400F012FE01A902A8FFF7A6FD9F
:1062E80050BB00F0E9FDD4F838A0E56B00F006FEDD
:1062F800AA451BD1E36C43F48063C8F800300199C8
:1063080004F11000FFF7C2FC2046FFF7CDFEFFF7AF
:106318005DFA10B14FF0010A93E74FF08053C9F8C6
:106328000030BFF34F8FBFF36F8FF3E72046FFF7BF
:10633800BBFEFFF74BFAEDE72046FFF7B5FEFFF788
:1063480045FAE36C104A43F400731360002014E02C
:106358004FF41A720A490E4805F058FD5EE740F2FC
:10636800692207490B4805F051FD5DE74FF41B72A0
:106378000349094805F04AFD5DE704B0BDE8F08728
:10638800B9D40108D2D401080C0000E004ED00E003
:10639800FCD401084CD5010893D5010870B5064610
:1063A800542000F04FFC0446D8B101230025C363F4
:1063B8004FF0FF33856345604364056083648560FF
:1063C800C560056480F850601030FEF775FE04F172
:1063D8002400FEF771FE2B462A4629462046FFF781
:1063E8000BFF204670BD00002DE9F0410E46904697
:1063F8001D46044628B940F224422649264805F09D
:1064080005FD0EB9236C9BBB022D02D1E36B012B5A
:1064180035D100F055FEEFF311874FF05F0383F39A
:106428001188BFF36F8FBFF34F8FA26BE36B9A4254
:1064380001D3022D1AD12A4631462046FFF7EAFD3C
:10644800A36C01330DD1636A73B104F12400FFF723
:1064580093FC48B1B8F1000F06D00120C8F800003D
:1064680014E0A36C0133A36401200FE000200DE0C9
:1064780040F225420749094805F0C8FCC4E740F244
:1064880026420449064805F0C1FCC2E787F3118893
:10649800BDE8F081B9D40108D2D40108FCD40108C0
:1064A8004CD5010870B50D46044628B940F2BF42E4
:1064B8002049214805F0AAFC236C2BB140F2C342C5
:1064C8001C491E4805F0A2FC23680BB963683BBB56
:1064D80000F0F6FDEFF311864FF05F0383F31188A8
:1064E800BFF36F8FBFF34F8FA26BE36B9A4215D246
:1064F800A36B0133A363A36C01330AD1636A5BB155
:1065080004F12400FFF738FC30B12DB101202860D8
:106518000DE0A36C0133A364012008E0002006E02D
:106528004FF499620349064805F070FCD0E786F3FA
:10653800118870BDB9D40108D2D40108E9D5010881
:1065480002D601082DE9FF470E4601921F46044670
:1065580028B940F25B525849584805F057FC1EB913
:10656800236C002B40F09780FFF7A0FC18B9019B23
:10657800002B40F09780DFF85481DFF844914FF00A
:10658800000A00F099FCA36B53B331462046E56836
:10659800FFF775FD87B9A36B013BA363236813B9A4
:1065A800FFF72CFD60602369B3B104F11000FFF719
:1065B800E3FB012810D107E0636AE56063B104F1E9
:1065C8002400FFF7D9FB38B13D4B4FF080521A60D9
:1065D800BFF34F8FBFF36F8F00F090FC012068E08E
:1065E800019D1DB900F08AFC284662E0BAF1000F4F
:1065F80002D102A8FFF702FC00F080FCFFF738F890
:1066080000F05AFC636C013304BF00236364A36C7D
:10661800013304BF0023A36400F070FC01A902A8A1
:10662800FFF704FC80BB00F047FCA56B00F066FC9C
:1066380025BBE36C43F44073C8F80030236833B9D2
:1066480000F03AFC6068FFF741FC00F057FC019944
:1066580004F12400FFF71AFB2046FFF725FDFFF79A
:10666800B5F810B14FF0010A8BE74FF08053C9F825
:106678000030BFF34F8FBFF36F8FF3E72046FFF76C
:1066880013FDFFF7A3F8EDE72046FFF70DFDFFF731
:106698009DF800200DE040F25C520749094805F0DA
:1066A800B5FB61E740F25F520349074805F0AEFBCE
:1066B80061E704B0BDE8F087B9D40108D2D4010875
:1066C80004ED00E05DD6010893D501080C0000E058
:1066D800F8B50E461746044628B940F215621C491B
:1066E8001C4805F093FB0EB9236C3BBB00F0E8FC9B
:1066F800EFF311854FF05F0383F31188BFF36F8FBA
:10670800BFF34F8FA06B00B331462046FFF7B7FCAD
:10671800A36B013BA363636C01330AD123695BB1AB
:1067280004F11000FFF728FB30B12FB101203860C9
:106738000BE0636C01336364012006E040F21662EB
:106748000349054805F062FBD0E785F31188F8BDD9
:10675800B9D40108D2D401085DD6010810B50446A1
:1067680028B94FF4D4620549054805F04FFB00F0FD
:10677800A3FBA46B00F0C2FB204610BDB9D40108EE
:10678800D3D4010830B5084A002352F8335002EB3D
:10679800C30425B9044A606042F8331030BD0133A0
:1067A8000A2BF2D130BD00BF74E4002070B5044656
:1067B8000D46164600F080FB636C013304BF0023CE
:1067C8006364A36C013304BF0023A36400F096FB49
:1067D800A36B2BB93246294604F12400FFF790FA3F
:1067E8002046BDE87040FFF75FBC0000F8B5134CC9
:1067F80000F062FB2568EDB9114F124E3846FEF7DE
:106808005BFC3046FEF758FC0F4B1F600F4B2A46C7
:106818000C2114201E60FFF7BBFC206028B940F251
:106828001A320B490B4805F0F1FA206810B10A49F1
:10683800FFF7A8FFBDE8F84000F060BB140C00208B
:10684800E80B0020FC0B0020E40B0020180C0020B3
:10685800C1D60108DBD60108E7D60108914208B580
:106868004160006106D8D21A83699A420DD2011D8F
:10687800074B05E09A4201D2994206D2054B011D09
:106888001868FEF733FC002008BD012008BD00BFD2
:10689800180C0020E40B00201FB5FFF7A7FF0E4BD4
:1068A8001B683BB90D480E494FF4877205F0AEFAE4
:1068B80000200DE00023012200920393029301932C
:1068C8004FF4967207490848FEF7E4FC0028E9D01F
:1068D80005B05DF804FB00BF140C0020FFD20108CE
:1068E800C1D60108ECD60108296A00082DE9F04153
:1068F800804617461E460D4689B12C2000F0A2F9A5
:10690800044698B1FFF772FF069BC4F80080A561A2
:10691800E76126626362201DFEF7D9FB06E04FF4AB
:106928009B720449044805F071FA2C462046BDE8DC
:10693800F08100BFC1D60108F4D601082DE9FF4156
:106948000D4690461F46064628B940F241121149A5
:10695800114805F05BFA114C2068B8B1052D019576
:10696800CDF8088003960CDCFFF7A0FA0023022874
:1069780008BF0A9A206818BF1A4601A9FFF73CFC0D
:1069880004E000233A4601A9FFF72EFD04B0BDE854
:10699800F08100BFC1D6010810D70108140C0020EF
:1069A8002DE9F3411A4E374633681A6842B3DB685B
:1069B800DC681D6804F104084046FEF7AFFB636A13
:1069C80020469847E369012BEED1A3692B449D42E9
:1069D80006D26360246141463868FEF787FBE3E727
:1069E800002300932A4619462046FFF7A7FF0028F0
:1069F800DAD14FF43F720749074805F007FAD3E7A1
:106A0800064A034910680860136002B0BDE8F081C7
:106A1800E40B0020C1D6010817D70108180C002084
:106A28002DE9F04786B0DFF8A4A1DAF800301D6838
:106A38001DB1DB68D3F8008000E0A8465C4EFEF785
:106A480017FEFEF71DFE336898428146374603D28B
:106A5800FFF7A6FF012400E00024C6F80090554E79
:106A6800002C42D145B3C1452DD3FEF7AFFEDAF86D
:106A78000030DB68DD68281DFEF750FBEB69012B51
:106A880016D1A96943464A4641442846FFF7E6FE1F
:106A980001280DD100942346424621462846FFF797
:106AA8004DFF28B940F293124349444805F0AEF926
:106AB8006B6A284698471EE0414B1B681A68B2FA71
:106AC80082F2520900E02246C9EB08013068FFF75C
:106AD8006DFEFEF77BFE70B93A4B4FF080521A609C
:106AE800BFF34F8FBFF36F8F05E0FEF76FFE02E035
:106AF800039B002B08DA00231A4603A93068FFF726
:106B080021FD0028F4D18EE7059C636913B1201D8F
:106B1800FEF704FBFEF7B4FD3B689842054601D238
:106B2800FFF73EFF039A3D60092AE4D8012393400A
:106B380013F404782AD113F0C70F05D19B06DAD5D0
:106B4800204600F01DF9D6E7A169049B2A4619449E
:106B58002046FFF783FE0128CDD1636A2046984777
:106B6800E369012BC7D1A2690499CDF800800A44D2
:106B7800434641462046FFF7E1FE0028BBD14FF4CB
:106B880028720D490D4805F041F9B4E7049BA3614B
:106B98002BB940F2B72208490B4805F037F9A1692B
:106BA8002B462A4629442046FFF758FEA3E700BF94
:106BB800100C0020140C0020C1D6010817D70108BA
:106BC800180C002004ED00E01FD70108E40B00209A
:106BD80010B5044628B94FF453720549054805F025
:106BE80015F900F069F9246A00F088F9204610BD0B
:106BF800C1D6010810D7010810B5104B1A68824297
:106C080001D21346FAE759685C18A04201BF4068F0
:106C180009181846596041684418A24208D1084C1E
:106C28002468A24204D05268114441601A6812686C
:106C38000260984218BF186010BD00BF240C0020E5
:106C4800200C00202DE9F8430446FEF711FD4249C7
:106C5800424D0B68FBB9424A424E50071FBF0732EC
:106C6800414B22F007029B1A08BF49F640431344E0
:106C7800083B23F0070300207060326058601860FA
:106C88000B60981A1360394B50601860384B1860C5
:106C98004FF000432B602B681C4248D1002C44D095
:106CA800083463071CBF24F007040834002C3CD0C8
:106CB8002F4F3B689C423AD82A4B1E687268944210
:106CC80003D80A68964206D131E03268002AF8D023
:106CD80033461646F2E7326818681A6073681B1B59
:106CE800102B00F1080811D906EB040919F0070F59
:106CF80004D0E8221F49204805F088F873681B1B58
:106D0800C9F8043048467460FFF776FF174972687F
:106D18003B6808689B1A83423B6038BF0B602B684E
:106D28001A4300237260336003E0A04601E04FF08D
:106D38000008FEF74BFDB8F1000F01D102F090F901
:106D480018F0070F05D04FF494720A490B4805F064
:106D58005DF84046BDE8F883200C00206CA80020B0
:106D68002C0C0020240C00206CA8002070A8002007
:106D78001C0C002044D701086FD70108B0D70108C0
:106D880038B5044688B3194B50F8041C1A681142E8
:106D98001D4605D14FF49E721549164805F036F880
:106DA80054F8083C2BB140F23D121149124805F045
:106DB8002DF854F8043C2A68134216D054F8081CDD
:106DC80099B923EA020344F8043CFEF751FC0B4A44
:106DD80054F8041C1368A4F108000B441360FFF76F
:106DE8000BFFBDE83840FEF7F1BC38BD6CA80020A9
:106DF80044D70108EDD701081ED801081C0C002053
:106E0800014B1868704700BF1C0C0020064800683A
:106E1800006880F3088862B661B6BFF34F8FBFF38E
:106E28006F8F00DF00BF000008ED00E0DFF80C0006
:106E3800016841F4700101607047000088ED00E0CE
:106E480008B5094B1B68013305D040F20712074902
:106E5800074804F0DBFF4FF05F0383F31188BFF3AB
:106E68006F8FBFF34F8FFEE7000000203ED8010868
:106E78006CD801084FF0807300E90A00054B40F810
:106E88000C3C6FF0020340F8202C40F8243C4438B6
:106E9800704700BF496E0008064B19680868B0E8DB
:106EA800F04F80F30988BFF36F8F4FF0000080F335
:106EB80011887047800B00204FF05F0383F311881F
:106EC800BFF36F8FBFF34F8F084A13680133012B4D
:106ED80013600AD1064B1B6813F0FF0F05D040F270
:106EE8009F120449044804F091BF70470000002035
:106EF80004ED00E03ED80108A2D8010810B5084CFE
:106F080023682BB94FF4D3720649074804F07EFF73
:106F18002368013B23600BB983F3118810BD00BFC0
:106F2800000000203ED80108D7D80108EFF30980F7
:106F3800BFF36F8F144B1A681EF0100F08BF20EDB7
:106F4800108A20E9F04F10604DF8043D4FF05F00C3
:106F580080F31188BFF34F8FBFF36F8FFEF7DEFD0D
:106F68004FF0000080F3118808BC19680868B0E881
:106F7800F04F1EF0100F08BFB0EC108A80F309889C
:106F8800BFF36F8F704700BF800B002008B5EFF389
:106F980011834FF05F0282F31188BFF36F8FBFF345
:106FA8004F8FFEF773FB18B1034B4FF080521A60F6
:106FB800002383F3118808BD04ED00E0034B044A65
:106FC8001A60072243F8042C704700BF14E000E061
:106FD8003F90020013B52E4B2E4A196891421C4669
:106FE80005D140F23D122C492C4804F00FFF2268CD
:106FF8002B4B9A4205D14FF49F722749294804F038
:1070080005FF294B1A78D2B20192FF221A701B7819
:10701800264ADBB28DF803309DF8033003F05F0396
:107028001370234B07221A6000219DF80300000605
:1070380002F1FF3408D59DF803205200D2B28DF832
:10704800032001212246F0E701B11A601A681202F2
:1070580002F4E0621A60019B134ADBB21370154B0D
:107068001A6842F47F021A601A6842F07F421A6076
:10707800FFF7A4FF104B00221A60FFF7D7FE0F4A54
:10708800136843F040431360FFF7C0FEFFF7D8FED4
:1070980000ED00E071C20F413ED80108E9D80108AF
:1070A80070C20F410CD9010800E400E074A8002068
:1070B80078A8002020ED00E00000002034EF00E078
:1070C80008B5EFF305830F2B0BD90E4A9B5C0E4ACC
:1070D80012789A4205D94FF438720C490C4804F0DA
:1070E80095FE0C4B0C4A1B68126803F4E06393424C
:1070F80007D94FF43C7205490848BDE8084004F038
:1071080085BE08BDF0E300E074A800203ED8010861
:107118002FD901080CED00E078A8002059D9010802
:1071280008B501214FF4807000F062FC00214FF493
:107138008070BDE8084000F05BBC0000436823F0A5
:1071480040720B6822F4807213430A7943EA0223DF
:107158004360CB680A691A438B6810B51A43846880
:10716800084B234013434A7943EA42038360C36AC6
:1071780023F470020B7D013BDBB242EA0353C36286
:1071880010BD00BFFDF7FFC000230360037143710A
:107198008360C360036101230375704710B5074C12
:1071A800074B6268134090E8060011438268114358
:1071B800C2680A431343636010BD00BF0023014047
:1071C800E030FCFF0023036043608360C3607047C6
:1071D800836811B143F0010301E023F001038360E8
:1071E8007047092970B50DD9A1F10A04C66804EBE6
:1071F80044040725A54026EA050503FA04F42C43B0
:10720800C4600AE0066901EB41040725A54026EAA7
:10721800050503FA04F42C430461062A0CD8013A44
:10722800446B02EB82021F23934024EA030301FA12
:1072380002F21A43426370BD0C2A0CD8073A046B59
:1072480002EB82021F23934024EA030301FA02F2AD
:107258001A43026370BD0D3AC46A02EB82021F230F
:10726800934024EA030301FA02F21A43C26270BD92
:10727800836843F0804383607047C06C80B2704776
:107288000368194214BF012000207047044B5A6854
:1072980009B1104301E022EA00005860704700BFBE
:1072A800002004E0044BDA6809B1104301E022EA47
:1072B8000000D860704700BF002004E0036823F096
:1072C800010303600023036043608360C3600361BC
:1072D80021234361294B984217D0294B98421BD050
:1072E800284B984220D0284B984225D0274B9842CB
:1072F8002AD0274B98422ED0264B984232D0264B84
:10730800984236D0254B984203D13D2243F8082CA9
:107318007047234B984204D14FF4746243F8202CF1
:107328007047204B984204D14FF4741243F8382C1C
:1073380070471D4B984204D14FF0746243F8502CAB
:1073480070471A4B984203D1194A43F8642C704786
:10735800184B984203D1184A43F87C2C7047174BB6
:10736800984203D1164A43F8942C7047154B98421B
:1073780003D14FF03D5243F8AC2C704710600240E7
:10738800286002404060024058600240706002403D
:1073980088600240A0600240B86002401064024069
:1073A800286402404064024058640240706402400D
:1073B8003D00002088640240400F0020A064024085
:1073C80000003D20B86402400268134B10B513401A
:1073D8000C68CA6814434A6914438A691443CA6921
:1073E80014430A6A14434A6A14438A6A14434A6B68
:1073F80014438A6B2243134303604369CC6A23F026
:1074080007020B6B2343134343610B6943604B68CB
:1074180083608B68C36010BD3F801CF0036811B1A6
:1074280043F0010301E023F001030360704741606A
:107438007047406880B27047006800F001007047EC
:1074480010B50A4B0A4A0B4CA04294BF1846104686
:107458008B004CBF4368036821F0F02121F08211B2
:10746800194214BF0120002010BD00BF0060024077
:10747800006402400F6402400B0611D543694AB10B
:1074880043F080038029436114D0036801F01E0192
:1074980019430EE023F080038029436104D170472B
:1074A800802907D0002AF0D1036801F01E0123EAE1
:1074B8000101016070470000104A114B10B5114CD2
:1074C800A04294BF1C46144621F0F02323F0C312B7
:1074D8002AB1006800F01E0000EAD12202E04069EB
:1074E80000F0800289004CBF6068206823F0821396
:1074F800184002D0101C18BF012010BD00640240C3
:10750800006002400F64024010B5084A084B094C5D
:10751800A04294BF1846104611F0005F21F0F021F8
:1075280021F0821114BFC160816010BD0064024067
:10753800006002400F640240FFF7E6BF837910B590
:107548000468002B30D01D4B196821EA04021A6028
:107558005A68016822EA01025A600279016802F158
:10756800804202F59E321468214311609A680168CE
:1075780022EA01029A600168DA6822EA0102DA6006
:1075880042790168102A07D19A6811439960D9682D
:1075980002680A43DA6010BD02F1804303F59E33A6
:1075A8001A681143196010BD037903F1804303F58C
:1075B8009E331A6822EA04021A6010BD003C01409A
:1075C800014B5861704700BF003C0140034B5B69A9
:1075D800034214BF01200020704700BF003C014057
:1075E800014B5861704700BF003C0140F0B50023D3
:1075F800012703260A6807FA03FC3CEA020233D192
:107608005A00056806FA02F4E4432540056091F83B
:1076180004E005680EFA02FE4EEA050505600D79DC
:10762800013D012D14D885682C40846091F805E04F
:1076380085680EFA02FE4EEA05058560446824EA6C
:107648000C0444608C7945689C40A4B22C43446087
:10765800C46806FA02F524EA0504C460CD79C46852
:1076680005FA02F22243C2600133102BC2D1F0BDE9
:107678004FF6FF7303600023037143718371C37175
:1076880070470369194214BF012000207047018325
:107698007047418370470AB101837047418370473F
:1076A80010B501F00703C90800EB81009B00046ACC
:1076B8000F21994024EA01010162016A9A400A43B4
:1076C800026210BD08B5144B984208D101214FF44D
:1076D800001000F081F900214FF4001016E00F4B64
:1076E800984208D101214FF4800000F075F900217B
:1076F8004FF480000AE00A4B98420BD101214FF465
:10770800000000F069F900214FF40000BDE80840CE
:1077180000F062B908BD00BF0054004000580040A6
:10772800005C00407FB5868826F03F060446360494
:1077380068460D46360C00F0DBF8029A2C48B2FB7E
:10774800F0F081B20E43A68023882A4E23F001036D
:107758001B041B0C23802B68B3420AD85B00013141
:10776800B2FBF3F39BB2032B89B298BF04232184A5
:1077780023E0EE884BF6FF718E421BBF19214B4365
:1077880003EB4303B2FBF3F315BF9BB2B2FBF3F376
:1077980043F480439BB2C3F30B020AB943F00103DD
:1077A8004FF4967101FB00F24FF47A7192FBF1F2FB
:1077B800013292B243F400432284A38323889BB20C
:1077C80043F0010323802388A9886A8923F481630D
:1077D80023F002031B040A431B0C13439BB22380B0
:1077E800AA892B8913439BB2238104B070BD00BFC3
:1077F80040420F00A086010012B141F0010101E0F2
:1078080001F0FE0189B201827047038819B19BB269
:1078180043F4806303E023F480631B041B0C0380A0
:10782800704701827047008AC0B27047838819B1D7
:107838009BB243F4006303E023F400631B041B0CB6
:1078480083807047838819B19BB243F4805303E067
:1078580023F480531B041B0C8380704783889BB2DE
:107868000AB1194301E023EA01018180704782B01F
:107878000023009301930B0F01900093009B21F0CC
:107888007F4113B1019B143302E0019B090C1833AB
:107898000193019B1B68194214BF0120002002B00C
:1078A8007047C94389B2818270470000014B186054
:1078B800704700BF00300040014B5860704700BF60
:1078C80000300040014B9860704700BF0030004016
:1078D800024B4AF6AA221A60704700BF00300040E7
:1078E800024B4CF6CC421A60704700BF0030004093
:1078F80010B51D4A936803F00C03042B03D0082B22
:1079080003D01A4B18E01A4B16E05168536811F46B
:10791800800F03F03F03516814BF154A134AB2FBA6
:10792800F3F3114A5268C2F30142C1F388110132DC
:107938004B435200B3FBF2F30B4A036093680D49C3
:10794800C3F30313CC5C0368E34043609468C4F357
:1079580082240C5D23FA04F484609268C2F34232F4
:107968008A5CD340C36010BD003802400024F40094
:1079780000127A0004000020044B1A6B09B110436E
:1079880001E022EA00001863704700BF0038024097
:10799800044B5A6B09B1104301E022EA0000586316
:1079A800704700BF00380240044B1A6C09B11043FD
:1079B80001E022EA00001864704700BF0038024066
:1079C800044B5A6C09B1104301E022EA00005864E4
:1079D800704700BF00380240044B1A6A09B11043CF
:1079E80001E022EA00001862704700BF0038024038
:1079F800044B5A6A09B1104301E022EA00005862B8
:107A0800704700BF003802404209012A074B01D1E4
:107A18001B6803E0022A0CBF1B6F5B6F00F01F009E
:107A280023FA00F000F00100704700BF0038024060
:107A3800024A536F43F0807353677047003802401F
:107A480008B5274B984208D101214FF48050FFF721
:107A5800CFFF00214FF480503DE0224B984208D1DF
:107A680001214FF48040FFF7B7FF00214FF4804019
:107A78000AE01D4B98420BD101214FF40040FFF75B
:107A8800ABFF00214FF40040BDE80840FFF7A4BF5A
:107A9800164B984208D101214FF40050FFF7A8FF78
:107AA80000214FF4005016E0114B984208D10121F3
:107AB8004FF48010FFF79CFF00214FF480100AE07C
:107AC8000C4B98420BD101214FF40010FFF790FFA7
:107AD80000214FF40010BDE80840FFF789BF08BD3A
:107AE8000030014000380040003C004000340140B4
:107AF800005001400054014003880A8810B503F47F
:107B080041544B8813438A881343CA8813430A890C
:107B180013434A8913438A891343CA891343234366
:107B28009BB20380838B23F400631B041B0C8383A9
:107B38000B8A038210BD038819B19BB243F040033E
:107B480003E023F040031B041B0C03807047838869
:107B58009BB20AB1194301E023EA01018180704711
:107B680030B5048C24F001042404240C0484048B10
:107B7800058CA4B2ADB224F0F304224325F00A0523
:107B880042EA031345F001059AB2294302830184AE
:107B980030BD30B5048C24F010042404240C048473
:107BA800058B048C25F44075A4B22D052D0D24F009
:107BB800A00444F0100445EA022242EA033344EAEE
:107BC80001119BB28CB20383048430BD08B54D4BC0
:107BD800984206D101210846FFF70AFF002101203B
:107BE80044E0B0F1804F06D101210846FFF7F4FECA
:107BF8000021012081E0444B984206D10121022056
:107C0800FFF7EAFE0021022077E0404B984206D1B8
:107C180001210420FFF7E0FE002104206DE03C4B29
:107C2800984206D101210820FFF7D6FE002108203E
:107C380063E0384B984206D101211020FFF7CCFEB3
:107C48000021102059E0344B984206D10121202010
:107C5800FFF7C2FE002120204FE0304B984209D1A7
:107C680001210220FFF7C4FE00210220BDE80840E0
:107C7800FFF7BEBE2A4B984208D101214FF480304D
:107C8800FFF7B6FE00214FF48030EFE7254B98420E
:107C980008D101214FF40030FFF7AAFE00214FF46C
:107CA8000030E3E7204B984208D101214FF48020AF
:107CB800FFF79EFE00214FF48020D7E71B4B984228
:107CC80006D101214020FFF787FE0021402014E063
:107CD800174B984206D101218020FFF77DFE002135
:107CE80080200AE0134B98420BD101214FF4807099
:107CF800FFF772FE00214FF48070BDE80840FFF7DF
:107D08006BBE08BD000001400004004000080040B0
:107D1800000C004000100040001400400004014026
:107D28000040014000440140004801400018004064
:107D3800001C0040002000401C4A038890429BB26F
:107D480012D002F5806290420ED0B0F1804F0BD075
:107D5800A2F58032904207D002F58062904203D0AB
:107D680002F58062904203D14A8823F070031343DE
:107D78000F4A904208D002F5806290421FBF23F458
:107D880040730A899BB2134303804B68C3620B8814
:107D98000385064B984203D003F58063984201D1CE
:107DA8008B7A038601238382704700BF000001405D
:107DB800001000404FF0FF3343600023038003812D
:107DC800438083727047018582827047038819B1A6
:107DD8009BB243F0010303E023F001031B041B0CD7
:107DE80003807047038C23F001031B041B0C0384DE
:107DF800038C70B58488028B0E8822F073021204FB
:107E0800120C23F0020516438B894A882D0413436C
:107E18000F4A2D0C2B439042A4B29BB203D002F51B
:107E2800806290420ED1CA890D8A23F00803134359
:107E38008A8823F0040313434A8A24F440741543C0
:107E48002C43A4B2848006838A684263038470BD8D
:107E580000000140038C23F010031B041B0C038457
:107E6800038C30B58588028B0C8822F4E642120414
:107E7800120C42EA042223F0200394B21B048A89DC
:107E88001B0C43EA02134A8843EA0213124A90423F
:107E9800ADB29BB203D002F58062904215D123F0B7
:107EA8008003CA899BB243EA02124FF6BF7313409C
:107EB8008A8843EA02130A8A25F4406545EA82055E
:107EC8004A8A45EA82059BB2ADB2858004838A68F6
:107ED8008263038430BD00BF00000140038C23F49B
:107EE80080731B041B0C0384038C30B58488828B3D
:107EF8000D8822F073021204120C23F40073154348
:107F08001B048A891B0C43EA02234A8843EA02239A
:107F1800124A9042A4B29BB203D002F5806290420A
:107F280015D123F40063CA899BB243EA02224FF6B3
:107F3800FF3313408A8843EA02230A8A24F4405410
:107F480044EA02144A8A44EA02149BB2A4B2848026
:107F580085838A68C263038430BD00BF0000014086
:107F6800038C23F480531B041B0C0384038C30B54F
:107F78008488828B0D8822F4E6421204120C23F4C2
:107F8800005342EA05221B048D891B0C43EA053382
:107F98004D8843EA05330B4DA842A4B292B29BB276
:107FA80003D005F58065A84205D10D8A24F48044E4
:107FB80044EA8514A4B2848082838A6802640384B4
:107FC80030BD00BF000001404163704781637047C6
:107FD800C163704701647047038B23F008031B04D7
:107FE8001B0C194301837047038B23F400631B04A4
:107FF8001B0C43EA012189B201837047838B23F06C
:1080080008031B041B0C194381837047838B23F4DB
:1080180000631B041B0C43EA012189B2818370476A
:1080280000230122038043808280C380038170473C
:10803800406B7047806B7047006C7047038B23F070
:108048000C031B041B0C0383038B9BB21943018392
:108058007047038B23F440631B041B0C0383038BBF
:108068009BB243EA012189B201837047838B23F0D5
:108078000C031B041B0C8383838B9BB219438183E2
:108088007047838B23F440631B041B0C8383838B0F
:108098009BB243EA012189B2818370472DE9F041FF
:1080A8000D880B898A88884649883DB9FFF758FDAD
:1080B800B8F80610BDE8F041FFF7C0BF042D07D19E
:1080C800FFF767FDB8F80610BDE8F041FFF7C1BF3C
:1080D800082D058C1DD125F480752D042D0C0584E3
:1080E800858B068CADB2B6B225F0F30526F4206672
:1080F80045EA031346EA01259BB2ADB245F4807503
:108108001A4382830584B8F80610BDE8F041FFF7EA
:10811800ADBF25F480552D042D0C0584B0F81CE066
:10812800068C2EF4407726F400553F056D043F0D6C
:108138006D0C47EA022745EA013547EA0333ADB239
:1081480045F480559BB283830584B8F80610BDE8D2
:10815800F041FFF796BFB0F8443029B16FEA4343C6
:108168006FEA53439BB201E0C3F30E03A0F8443017
:108178007047038A194214BF012000207047038A00
:10818800828911EA030092B203D0114214BF012080
:1081980000207047C94389B20182704783899BB226
:1081A8000AB1194301E023EA010181817047FFF711
:1081B800F5BF00007FB5038ACA889BB223F44053F9
:1081C8001343038283890E469BB223F4B0538988F4
:1081D80023F00C0233890B4371890B439BB2134381
:1081E8008381838AB2899BB223F4407313438382C9
:1081F80004466846FFF77CFB194B9C4203D003F505
:1082080080639C4201D1039D00E0029DA3893168EF
:1082180013F4004F4FF0190202FB05F214BF4D0092
:108228008D00B2FBF5F5A2896426B5FBF6F00001D6
:108238000109120406FB115307D5D9003231B1FBED
:10824800F6F202F00702104306E01A013232B2FBDE
:10825800F6F303F00F03184380B2208104B070BD19
:1082680000100140838919B19BB243F4005303E025
:1082780023F400531B041B0C83817047C1F30801CE
:10828800818070478088C0F308007047838A9BB25A
:108298000AB1194301E023EA0101818270470123F1
:1082A80010B5C1F342149C4201F01F0103FA01F119
:1082B80001D10C3003E0022C0CBF103014300368DD
:1082C8000AB1194301E023EA0101016010BDC94365
:1082D80089B201807047012310B5C1F3421401F03F
:1082E8001F029C4203FA02F201D1838903E0022CA7
:1082F8000CBF038A838A9BB21340028892B243B1AF
:108308000123090A03FA01F10A4214BF18460020A2
:1083180010BD184610BD000040F0BF60024B40F48D
:108328000030D860704700BF00ED00E0C2780378E5
:1083380030B51AB3174A4578D168C943C1F3022149
:10834800C1F10402D2B205FA02F2D4B20F220A41F4
:1083580081780A40224303F1604303F56143120127
:10836800D2B283F8002303780122590903F01F03CE
:1083780002FA03F3084A42F8213030BD5A090121B4
:1083880003F01F0301FA03F32032034941F82230B6
:1083980030BD00BF00ED00E000E100E010B501F0E5
:1083A800030301F0FC0101F1804101F59C319B00C0
:1083B8008C680F229A4024EA02028A608A689840F0
:1083C8001043886010BD08B507F0DCF900F07CFEAA
:1083D800FDF708F907F000FA0121002007F0F6F987
:1083E8000121084607F0F2F9FEE700002DE9F04107
:1083F8001E4E3578C5BB1E4C01214FF48040FFF757
:10840800C7FA01270623A57020460D252370E770BB
:108418006570FFF78BFF0723204623706570FFF711
:1084280085FF0823204623706570FFF77FFF092327
:10843800204623704FF00A086570FFF777FF052381
:108448002046637084F80080FFF770FF17232046EA
:1084580023706570FFF76AFF2823204684F801809F
:108468002370FFF763FF3770BDE8F08180A8002014
:108478007CA80020704708B50120FFF7B1F8FFF786
:10848800F9FF08BD704708B50220FFF7A9F8FFF704
:10849800F9FF08BD704708B50420FFF7A1F8FFF7FA
:1084A800F9FF08BD704708B50820FFF799F8FFF7EE
:1084B800F9FF08BD08B51020FFF792F809F0EEF9AA
:1084C80008BD7047704770477047704708B520204F
:1084D800FFF77CF8012804D12020FFF781F8FFF787
:1084E800F0FF4020FFF772F8012804D14020FFF781
:1084F80077F8FFF7E7FF8020FFF768F8012804D135
:108508008020FFF76DF8FFF7DEFF4FF48070FFF76C
:108518005DF8012805D14FF48070FFF761F8FFF787
:10852800D3FF4FF40070FFF751F8012805D14FF43D
:108538000070FFF755F8FFF7C8FF08BD7047704790
:108548007047704708B54FF48060FFF73FF801287F
:1085580005D14FF48060FFF743F8FFF7EFFF4FF4C2
:108568000060FFF733F8012805D14FF40060FFF7EA
:1085780037F810F005FD4FF48050FFF727F8012871
:1085880005D14FF48050FFF72BF8FFF7D8FF4FF4D1
:108598000050FFF71BF8012805D14FF40050FFF7F2
:1085A8001FF80BF0D3FA4FF48040FFF70FF80128BB
:1085B80005D14FF48040FFF713F8FFF7C1FF4FF4E0
:1085C8000040FFF703F8012805D14FF40040FFF7FA
:1085D80007F8FFF7B6FF08BD4FF44070FFF79CBEE1
:1085E800FEF7D4BC70471EF0040F0CBFEFF30880F1
:1085F800EFF3098000F002B8704700002DE9F84F4A
:10860800D0F800B0D0F804A0D0F80890D0F80C80CA
:10861800076946698569C4693449354803F060FDCE
:108628005A463449324803F05BFD524632493048D5
:1086380003F056FD4A4631492D4803F051FD4246A4
:108648002F492B4803F04CFD3A462E49284803F0A1
:1086580047FD32462C49264803F042FD2A462B495D
:10866800234803F03DFD22462949214803F038FDFF
:10867800284B29491A681E4803F032FD274B284920
:108688001A681B4803F02CFD264B27491A6818481E
:1086980003F026FD254B26491A68154803F020FDEE
:1086A800244B25491A68124803F01AFD0021084690
:1086B80000F05AF90021012000F056F900210220AB
:1086C80000F052F90021032000F04EF907F0B4F849
:1086D8000121022007F07AF80121042007F076F83A
:1086E8009321164803F0CAFBFEE700BF9BD9010897
:1086F800C9190108B1D90108BAD90108C3D90108B3
:10870800CCD90108D5D90108DFD90108E8D9010871
:10871800F1D9010838ED00E0FBD9010828ED00E0A7
:1087280006DA01082CED00E011DA010830ED00E06E
:108738001CDA01083CED00E027DA010832DA01080A
:10874800002108B5084600F00FF90021012000F0CB
:108758000BF90021022000F007F90021032000F0A6
:1087680003F907F069F80121022007F02FF8012129
:10877800042007F02BF8A621014803F07FFBFEE751
:1087880032DA0108002108B5084600F0EDF80021AA
:10879800012000F0E9F80021022000F0E5F80021AE
:1087A800032000F0E1F807F047F80121022007F064
:1087B8000DF80121042007F009F8BA21014803F057
:1087C8005DFBFEE732DA0108002108B5084600F033
:1087D800CBF80021012000F0C7F80021022000F0AA
:1087E800C3F80021032000F0BFF807F025F80121A5
:1087F800022006F0EBFF0121042006F0E7FFCE215E
:10880800014803F03BFBFEE732DA0108704707F046
:10881800FBBE000037B50F4D00246846FEF728FF61
:108828002B681A59D26800921B5969469868FEF756
:10883800DDFE2B681B590022198A9868FEF730FF65
:108848002B681B590434186AFFF7C0F9102CE4D1BF
:1088580003B030BDC4E400202DE9F043404F414D42
:108868003B788BB0044613B12868FFF7D3FF2C6020
:108878004FF0010900244FF002082B681B59012111
:108888005868FFF779F82B681B590121D869FFF759
:108898008BF86846FEF7ECFE2B688DF804808DF89F
:1088A80005801A5952698DF806201A59D268009223
:1088B8001B5969469868FEF799FE2B681B591A7E62
:1088C800198A9868FEF7ECFE2B681A59D26A039247
:1088D8001A590026128EADF80820ADF81060ADF8D0
:1088E8000A608DF812601B5902A9186AFFF724FA6A
:1088F8006023ADF814302B68ADF8169007961A5916
:10890800928CADF820204FF48072ADF824201B59CA
:1089180005A9DA6B186A90472B681B5908211A6C4D
:10892800186A90472B681B590121986AFEF7BAFC10
:108938002B681B590121186A0434FFF70CFC102C12
:108948009BD12B689B590121186A0436FFF73EFA20
:10895800102EF6D101233B700BB0BDE8F08300BFA9
:1089680094A80020C4E4002070B52DED028B304B94
:108978001B7882B005460C46002B55D0032804D935
:10898800D8222C492C4803F041FA2C4B1A6852F88B
:10899800252012781E465ABB07EE904A9FED287A8A
:1089A8009FED288AFBEEC87A67EE877A9FED267AD4
:1089B80027EE888A27EE877AA7EE878A09F0A2FC35
:1089C80088EE000A214BF7EE007AB4EE670AF1EE62
:1089D80010FAC8BFB0EE670ADFED1D7A20EE270A4D
:1089E800FCEEC07ACDED017ABDF8044043F825408D
:1089F800336853F825301A78186A012A01BF45F2FE
:108A080008214C434FF6FF71B4FBF1F104BF01F5A7
:108A1800A44108315A6B0CBF89B2210A02B0BDECDF
:108A2800028BBDE87040104702B0BDEC028B70BDF0
:108A380094A8002028DB010841DB0108C4E40020D9
:108A4800000070425839B43D388D23BA84A80020FC
:108A580000FF7F4703282DE9FF4104468846174653
:108A68001E4605DD4FF489721749184803F0CEF900
:108A780001A8FFF79FF9164DB8F1000F08D004239D
:108A8800144A92FBF7F292B2ADF80430029209E070
:108A98002B6853F82420D26A029253F824301B8E94
:108AA800ADF804302B6853F8243001A9186AFFF791
:108AB80043F92B6853F8243031465A6B186A9047AB
:108AC80004B0BDE8F08100BF28DB010841DB0108E4
:108AD800C4E40020005900012DE9F843134FDFF8E2
:108AE8005480DFF8549000243B6853F824301E78F3
:108AF800AEB958F8245039F8142040F275730121A2
:108B08002846FFF7A7FF3220FCF73AFF28463346EE
:108B180032463146FFF79EFF9620FCF731FF0134BD
:108B2800042CE1D1024B1878BDE8F883C4E4002096
:108B380094A8002090DA0108C0DB01087320704770
:108B480070B5164C164D174E88B02368AB4221D02D
:108B58009B686846984702460028F6D19DF8013080
:108B68001B0956F8230020B102236946FDF744FB90
:108B780003E00D4A1368013313609DF801300B4A76
:108B88001B0952F823100029DFD052F82330684619
:108B98009847DAE70A20FCF7F3FED6E748000020FA
:108BA8003400002098A80020E0A80020E4A80020B5
:108BB80070B50F4C0F4D88B026462368AB4213D0D2
:108BC8000D4800234FF0FF3269460068FDF7BAFCF4
:108BD8000128F2D1336868465B6898470028ECD1D1
:108BE8000A20FCF7CDFEF5E70A20FCF7C9FEE4E70A
:108BF8004800002034000020DCA800207FB5114D7B
:108C08002C78ECB9224620213C20FDF7C1FA0E4B06
:108C18000E49186002262346962203940294019472
:108C280000960B48FCF736FB234603940294019404
:108C38000096962207490848FCF72CFB01232B7065
:108C480004B070BDD8A80020DCA80020D8DC01083A
:108C5800B98B0008E0DC0108498B0008014B187843
:108C6800704700BFD8A8002038B5094B53F820201A
:108C780005461C4622B15C220649074803F0C6F89F
:108C8800002220210120FDF783FA44F8250038BD91
:108C980098A80020E8DC0108FFDC010870B50E4B3D
:108CA80053F8202005460E461C4622B96C220B4973
:108CB8000B4803F0ABF826B96D220849094803F0C0
:108CC800A5F8314654F8250000234FF0FF32BDE8DF
:108CD8007040FDF737BC00BF98A80020E8DC010809
:108CE80016DD010829E5010808B5034B1868FDF7EA
:108CF80035FDC0F13C0008BDDCA800201028DCBF11
:108D0800014B43F820107047E4A8002010B5044632
:108D180020B9C3220A490B4803F078F823781E2BA0
:108D280004D9C4220649084803F070F8074800230C
:108D380021461A460068BDE81040FDF75DBA00BF3D
:108D4800E8DC010829E5010825DD0108DCA8002088
:108D580008B5064B00211868FDF7DAF9044B1B68C3
:108D68001B6903B19847002008BD00BFDCA800209C
:108D780048000020034B1B68DB6803B1184701203B
:108D8800704700BF4800002070B5094C23680546AD
:108D980013B11B68002098470DB1256001E0054B11
:108DA8002360236801201B68BDE87040184700BF96
:108DB800480000203400002038B50C4C4FF0FF3339
:108DC8000021054644F8203006F000FD084A282313
:108DD80003FB0522002352F82310013102D044F886
:108DE800253038BD01330A2BF5D138BDF0A9002054
:108DF80024A900202DE9F74F8046FDF7E9FE2D4B09
:108E08001B78002B52D0DFF8BC90C4B22A4B53F821
:108E18002430581C4AD00A2505FB0435274E284A19
:108E280056F8257052F823B0D9F800007B1C46F894
:108E380025300BEBC70A002319464FF0FF32FDF728
:108E480081FBDAF80430991C08D05A1C0AD1204654
:108E580046F82530FFF7B0FF00251EE0002246F84F
:108E6800252019E01BF83710204606F0AFFCDAF889
:108E78000420002582B12B46042100954046FDF7C9
:108E88005DFDFCF7FDFB00952B460246012140469F
:108E9800FDF754FD012500E015460A4800231A464F
:108EA80019460068FDF7A8F9002DAFD003B0BDE85A
:108EB800F08F00BFECA90020F0A9002024A9002011
:108EC80044DD010818AA0020F7B51D4B1C781D4683
:108ED8009CBB06F081FC23461A481B4C4FF0FF311F
:108EE800282640F8231006FB0347002247F82210E3
:108EF80001320A2AFAD10133052BF2D1134F144E4D
:108F080000242346009700224FF47A711148FDF798
:108F1800EDFC46F824000134052CF2D1032200218F
:108F28000120FDF735F90C4A106020B100231A46DC
:108F38001946FDF761F901232B7003B0F0BD00BF9E
:108F4800EDA90020F0A9002024A90020FD8D00082B
:108F580004AA00203CDE010818AA002010B5044B22
:108F68001C7806F073FC034B01221A70204010BDD8
:108F7800EDA90020ECA90020F8B5184B05460024FF
:108F880053F82420914203D001340A2CF8D1F8BDBB
:108F9800134E002319464FF0FF323068FDF7D2FA1E
:108FA8000A2202FB05420F4B0027284643F822708D
:108FB800FFF702FF3B463A4639463068FDF71CF991
:108FC800094B53F82530A34206D1084B53F8250026
:108FD800BDE8F840FFF70EBFF8BD00BF44DD01084B
:108FE80018AA002024A90020F0A9002004AA002023
:108FF8004160C26070470000154B70B505460024FB
:1090080053F82420914203D001340A2CF8D170BDC2
:10901800104E002319464FF0FF323068FDF792FAE0
:109028000A2303FB05440C4B4FF0FF32284643F854
:109038002420FFF7C1FE00231A4619463068FDF7C1
:10904800DBF8064B53F82500BDE87040FFF7D2BEA9
:1090580044DD010818AA002024A9002004AA002041
:1090680008B54FF05F0383F31188BFF36F8FBFF329
:109078004F8F0649064803F033F80121022006F015
:10908800A5FB0121042006F0A1FBFEE788DE01080C
:10909800959400087047012070470000024B1B6838
:1090A8000BB11B68184770471CAA0020024B1B68AD
:1090B8000BB15B68184770471CAA0020014B186069
:1090C800704700BF1CAA00201FB50023022200928F
:1090D8000393029301934FF4967203490348FCF7F4
:1090E800D9F805B05DF804FB99DE0108259200085F
:1090F80073B5284C2578002D4AD10120FDF74EF98B
:10910800254B264E18604FF0FF322B462946FDF7B7
:1091180019FA08F009FF0CF077F9FFF76FFD00F076
:1091280073F91F491F4802F0DBFF1F491D4802F071
:10913800D7FF1E491E4B0D681E4836781E491A680F
:109148001E4B002E18BF01461B681648019100955A
:109158001B4902F0C5FF1B4B1B4AB3F900300193B2
:109168001A4B1B491B6800931A4B12681B680D4861
:1091780002F0B6FF10F026FB01F02EF90CF0DEFD30
:10918800FFF7A2FE09F092F8FFF784FF012323708E
:1091980002B070BD21AA0020C8E4002094E60108AE
:1091A800AFDE010895940008D2DE01088003002094
:1091B80084030020A0DE0108A9DE01087C0300204A
:1091C800F9DE0108227AFF1F187AFF1F107AFF1FA5
:1091D80013DF0108147AFF1F38B5084B1C78FFF716
:1091E800BDFE054609F088F82840044001F000F962
:1091F8000440FFF750FF204038BD00BF21AA0020DF
:1092080008B5054800231A4619460068FCF7F4FF1C
:10921800BDE8084008F0BCBCC8E4002038B506F03A
:10922800DBFA0121002006F0D1FAFFF761FF00F018
:10923800A1F801F013F902F021F90CF043FA0BF050
:1092480099FF0CF017FAFFF7C7FF044610F068FB08
:109258002040C4B200F0B0F8044001F0ABF904407B
:1092680002F030F904400CF04BFA04400BF0A8FF70
:1092780004400CF021FA04401F4D08F073FC84B13F
:1092880078B101242C70FFF7BBFF06200BF09EFF7E
:109298001A490420FFF770FE19492046FFF76CFEB3
:1092A8001CE000232B70FFF797FF88B114490420B6
:1092B800FFF762FE4FF4FA60FCF762FB2B78002B95
:1092C800F4D01049104802F00BFFFFF799FF05E0B2
:1092D80006F082FA0121042006F078FAFDF790FDE5
:1092E8000A490246084802F0FBFE01F089F84FF0EF
:1092F800FF30FCF745FBFAE720AA002070DE0108E2
:10930800C4DD010841DF01089594000855DF010814
:1093180010B50B4C23781BB90220FCF731FBF9E799
:10932800084C002319464FF0FF322068FDF70AF970
:10933800002320681A461946BDE81040FCF75CBFB8
:1093480021AA0020C8E40020014B1870704700BF14
:1093580028AA002008B5FCF793F9054A1368C31A30
:10936800502B02D91060FEF7B3FA30BF08BD00BF1A
:1093780024AA002010B50F4C2378CBB94FF46140D4
:1093880008F050FB09F096FD08F0A8F809F04AFA31
:1093980009F0BCFDFFF7F8FC00F082F90BF01AFEAB
:1093A80000F0F0FE00F0B0F901F0BEFB01232370DD
:1093B80010BD00BF29AA002038B50B4B1C7809F056
:1093C800F9F90546FFF74AFC2840044000F078F90F
:1093D80004400BF00FFE044000F034F8044000F0A5
:1093E8001FFA204038BD00BF29AA002010B5054C3F
:1093F8002046FFF78BFC01284FF000030CBF2370B9
:10940800184610BDCCE4002038B50B4B1C781D461F
:109418008CB90A4B0322214601201C705C70FCF7B2
:10942800B7FE074A106020B1234622462146FCF7C2
:10943800E3FE01232B7038BD30AA0020CCE40020C5
:109448002CAA0020014B1878704700BF30AA0020D2
:1094580037B50C4C054601AA00212068FDF738F9FC
:1094680001280CD1084A206813781D2B9EBFD118FB
:1094780001338D7001A998BF1370FDF713F82846C2
:1094880003B030BD2CAA0020CCE40020F8B5214A56
:10949800214B12785B680646002A39D0C3F30803CB
:1094A8001BB1BDE8F840FFF7D3BF1C4D4FF0FF32AA
:1094B80019462868FDF746F8012827D1184C237863
:1094C8001D2B07D9FFF710FC012817D12178154863
:1094D800002309E0E2180133DBB20A2E96702370EC
:1094E800F0D01E2B0CD1EDE75A18002A06DDC7185C
:1094F80022443F799770013B5A1DF5D1FFF776FF5B
:1095080000231A4619462868FCF776FEF0B2F8BD23
:109518001046F8BD30AA002000ED00E02CAA00207B
:10952800CCE40020B4DF010800230E4A43608360C6
:10953800C360036180ED000AC0ED050A80ED061ADC
:10954800C0ED071AC262036380ED0D2A80F854103B
:1095580031B1F0EE430AB0EE620A383002F01EBCB8
:10956800704700BF00409C4510B504462DED028BA6
:1095780029B1D0ED007A37EEC00A80ED010A94EDEA
:10958800017AD4ED026A94ED050ADFED2E7A94F89B
:10959800543027EE000A37EE667AD4ED0D6A84ED72
:1095A800080A70EE278AB0EE678A87EE260A1BB192
:1095B80004F1380002F0FCFB84ED040AD4ED047ACF
:1095C80094ED017A94ED0B1AF4EE677AF1EE10FA45
:1095D80018BF84ED048AD4ED077A94ED040A27EEC7
:1095E800800AD4ED0D7A84ED0A0A38EE808A94ED6B
:1095F800030AA7EE270AB5EE401AF1EE10FA84ED39
:10960800030A05D0F1EE410A02F0E0FD84ED030AF9
:10961800D4ED067A94ED030A94ED0C1A27EE800A2D
:10962800B5EE401AF1EE10FA84ED090A38EE000A98
:1096380003D0F1EE410A02F0C9FDBDEC028B63686C
:10964800A36010BD0000000080ED0B0A70470023E6
:1096580043608360C3600361704780ED010A70470F
:1096680080ED000A7047000038B5437813F0030313
:1096780005460FD0012B00D038BD04461E2204F841
:10968800022B0021204613F0C8FC0449204613F0A1
:10969800CCFC2846BDE83840FFF738BBB9DF0108E5
:1096A80010B5054C23782BB904490F20FFF726FB8A
:1096B8000123237010BD00BF31AA00207196000855
:1096C800014B1878704700BF31AA002070B50C4BC9
:1096D80019680C4B00221C680C2513468B4209DACA
:1096E80005FB03F6A657002E02DB824205D00132A5
:1096F8000133F3E74FF0FF3070BD184670BD00BF6F
:1097080064AA00205CAA00202DE9F04F354B1E7892
:1097180087B09846002E61D1334A344D344B2A60C5
:109728009B1A344A3449354FDFF8F0B03E609B103D
:1097380053430B60B1468A46DAF8000081452EDAB9
:109748002F4B386818600C2404FB09F42B681A198D
:109758001B5D8BF806305068C8B1FBF7A5FC1828CC
:1097680004D962222749284802F050FB2B681C4480
:10977800616805910846FBF797FC0599024623485E
:1097880013F040FC6068FBF78FFC411D00E00521E9
:109798001B4802F0B3FC09F101093860CCE71C4B07
:1097A8002C68196800220C25824208DA05FB02F7AA
:1097B8000132E757002FA4BF01310126F4E706B1B3
:1097C80019600023012403930293019300949622C5
:1097D80010491148FBF75EFD88F8004007B0BDE866
:1097E800F08F00BF60AA0020EC1302085CAA0020DA
:1097F800301B0208ABAAAAAA64AA002054AA002017
:1098080034AA0020CCDF0108E4DF010839AA0020CF
:1098180058AA002006E001085199000832AA002041
:10982800014B1878704700BF60AA00202DE9F84363
:1098380018B1012823D0BDE8F883394C394F3A4B89
:10984800E278D7F80090394E1D684FF00C0E0346A9
:10985800AB4222DA99F8001011F0800F0EFB03F8E2
:1098680004D0C90706D5D9F8046004E082421FD0A5
:10987800013000E02D4E013309F10C09E8E7284BCF
:1098880020225A7006221A70294A98701268DA70D3
:10989800284A10685860184606E0202363700023A1
:1098A800A3701F4801232370BDE8F843FFF72EBAC1
:1098B800202363700023E270A37099F800302371AD
:1098C8003046FBF7F1FB0546D9F80400FBF7ECFB43
:1098D80028440530C0B21E28207004D9D622164963
:1098E800164802F093FA3046FBF7DEFB3146421C7D
:1098F8001348144D13F086FB3046FBF7D5FB3B6845
:1099080098440446D8F804603046FBF7CDFB231D85
:10991800421C3146E81813F075FBA81EC4E700BFC7
:1099280032AA00205CAA002064AA0020970C020832
:1099380058AA002054AA0020CCDF01080CE0010836
:1099480037AA002034AA00202DE9F04F022085B064
:10995800824CFFF789F904F1030880497F4F022000
:10996800FFF79CF96678A57816F0030603D1284618
:10997800FFF75CFFF1E7012E30D12846FFF7A6FE7E
:10998800002805DAFF23A3700223E570237130E075
:109998000C235843724B1B681A5C191802F0030217
:1099A800022A8B680CD0032A0FD0012A15BF1B7816
:1099B8001B88E370A8F8003014BF022303230BE0D0
:1099C8001B68C8F80030052306E01A68C8F80020AC
:1099D8005A68C8F8042009232370AAE0022E2ED161
:1099E8002846FFF773FE002807DAFF23A370E57007
:1099F80026710323237038469CE00C235843584BA8
:109A08001B681A181B5C5906A7D403F00303022B22
:109A1800926809D0032B0BD0012B15BFE378B4F85B
:109A280003301370138084E0D4F80330136080E0AF
:109A3800D8F80010D8F8043082E80A0079E0002D40
:109A48008BD12B46FA18927802B9013501331E2BB7
:109A5800F8D1012D7EDD4348FBF726FB3D18043580
:109A680000902846FBF720FB3F4B404A1B680293B7
:109A78003B4B01901E684FF0000B029B9B451FDA81
:109A880096F800A01AF0800F04D01AF0010F12D037
:109A9800726811E0294670680392FBF7FBFA039A93
:109AA80050B9DFF8B890104609F10301FBF7F2FA54
:109AB800039A08B906E02D4A0BF1010B0C36DCE7D6
:109AC800022622E09DE80C0013449B464B445B7938
